:100000000C942A000C9447000C9447000C94470071
:100010000C94F6090C94C3090C9447000C949009B5
:100020000C9447000C945D090C942A090C94F70871
:100030000C9447000C9447000C9447000C94470024
:100040000C9447000C9447000C9447000C94470014
:100050000C94470011241FBECFE5D8E0DEBFCDBF12
:1000600011E0A0E6B0E0EAE2FDE502C005900D92E5
:10007000A433B107D9F711E0A4E3B1E001C01D92A8
:10008000AB34B107E1F70E94CB130C94932E0C9480
:100090000000EF92FF920F931F937B018C0120E0F1
:1000A00030E040E05FE40E94490388238CF0C801FF
:1000B000B70120E030E040E05FE40E94C1010E940F
:1000C000A9039B01AC01205030404040504806C07D
:1000D000C801B7010E94A9039B01AC01B901CA0183
:1000E0001F910F91FF90EF900895A0E0B0E0EBE733
:1000F000F0E00C94172EDC012B01FA019C91923058
:1001000008F439C1EB018881823008F433C194309E
:1001100069F4843009F02FC111969C91119789815F
:10012000981709F428C1AEE1B1E025C1843009F483
:1001300021C18230A9F4923009F01DC19A01AD01AC
:1001400088E0EA010990AE01E90109929E0181501F
:10015000C1F7E201898111969C918923818308C1AD
:10016000923009F407C112962D903C901397EB0141
:100170008A819B811496AD90BD90CD90DC901797AD
:10018000EC80FD800E811F819101281B390BB90184
:1001900037FF04C066277727621B730B6032710537
:1001A0000CF061C0121613066CF537014801062EDB
:1001B00004C096948794779467940A94D2F721E0C8
:1001C00030E040E050E004C0220F331F441F551FB1
:1001D0006A95D2F721503040404050402E213F21B7
:1001E00040235123211531054105510521F021E01E
:1001F00030E040E050E079018A01E628F72808293C
:1002000019293CC0232BD1F1260E371E350146019A
:10021000062E04C096948794779467940A94D2F734
:1002200021E030E040E050E004C0220F331F441FC3
:10023000551F6A95D2F721503040404050402A2146
:100240003B214C215D21211531054105510521F04E
:1002500021E030E040E050E059016A01A628B728CB
:10026000C828D9280BC0821593052CF01C01AA249C
:10027000BB24650103C0EE24FF24870111969C91E5
:10028000D20111968C91981709F445C0992339F041
:10029000A80197012A193B094C095D0906C0A6016E
:1002A00095012E193F09400B510B57FD08C01182D3
:1002B0003382228224833583468357831DC081E0A5
:1002C00081833382228288279927DC01821B930B4A
:1002D000A40BB50B84839583A683B7830DC0220F2F
:1002E000331F441F551F24833583468357838281E0
:1002F000938101979383828324813581468157813D
:10030000DA01C9010197A109B1098F5F9F4FAF4F72
:10031000BF4328F30BC0918333822282EA0CFB1C7B
:100320000C1D1D1DE482F5820683178383E0808304
:10033000248135814681578157FF1AC0C901AA27F8
:1003400097FDA095BA2F81709070A070B0705695EF
:10035000479537952795822B932BA42BB52B848318
:100360009583A683B7838281938101969383828349
:10037000DF0101C0D201CD01CDB7DEB7E2E10C94BF
:10038000332EA0E2B0E0E7ECF1E00C94232E698379
:100390007A838B839C832D833E834F835887E9E048
:1003A000EE2EF12CEC0EFD1ECE010196B7010E943F
:1003B000D2048E010F5E1F4FCE010596B8010E9438
:1003C000D2048A8991E089278A8BC701B801AE01DE
:1003D000475E5F4F0E9475000E94FD03A096E6E015
:1003E0000C943F2EA0E2B0E0E8EFF1E00C94232E55
:1003F00069837A838B839C832D833E834F835887C5
:10040000F9E0EF2EF12CEC0EFD1ECE010196B701A6
:100410000E94D2048E010F5E1F4FCE010596B801D7
:100420000E94D204C701B801AE01475E5F4F0E942F
:1004300075000E94FD03A096E6E00C943F2EA0E21A
:10044000B0E0E5E2F2E00C94172E69837A838B83A7
:100450009C832D833E834F835887CE010196BE0136
:10046000675F7F4F0E94D204CE010596BE016F5E8A
:100470007F4F0E94D2049985923088F0898982301A
:10048000C8F0943019F4823051F404C0843029F457
:10049000923081F48EE191E0C6C0923049F420E0C0
:1004A0009A858A89981321E02A87CE010996BBC0D4
:1004B000823049F420E09A858A89981321E02A8BBA
:1004C000CE014196B0C02D843E844F8458886D88FB
:1004D0007E888F88988CEE24FF248701AA24BB2471
:1004E000650140E050E060E070E0E0E0F0E0C10174
:1004F00081709070892BE9F0E60CF71C081D191D1E
:100500009A01AB012A0D3B1D4C1D5D1D80E090E062
:10051000A0E0B0E0E614F7040805190520F481E036
:1005200090E0A0E0B0E0BA01A901480F591F6A1F8E
:100530007B1FAA0CBB1CCC1CDD1C97FE08C081E0F5
:1005400090E0A0E0B0E0A82AB92ACA2ADB2A3196B6
:10055000E032F10549F0660C771C881C991C569412
:10056000479437942794C3CFFA85EA892B893C892D
:100570008B859C85280F391F2E5F3F4F17C0CA01FE
:1005800081709070892B61F016950795F794E79428
:1005900080E090E0A0E0B0E8E82AF92A0A2B1B2BC3
:1005A00076956795579547952F5F3F4F77FDE7CF36
:1005B0000CC0440F551F661F771F17FD4160EE0CDE
:1005C000FF1C001F111F21503040403090E05907A0
:1005D00090E0690790E4790760F32B8F3C8FDB0193
:1005E000CA018F779070A070B07080349105A1051A
:1005F000B10561F447FD0AC0E114F10401051105DC
:1006000029F0405C5F4F6F4F7F4F40781A8EFE1786
:1006100011F081E08A8F4D8F5E8F6F8F78A383E01A
:10062000898FCE0149960E94FD03A096E2E10C94C9
:10063000332EA8E1B0E0EFE1F3E00C94232E6983C0
:100640007A838B839C832D833E834F83588789E0F5
:10065000E82EF12CEC0EFD1ECE010196B7010E9492
:10066000D2048E010F5E1F4FCE010596B8010E9485
:10067000D2048985823040F08989823028F0C70110
:10068000B8010E944A0501C08FEF6896E6E00C941D
:100690003F2EA8E1B0E0EFE4F3E00C94232E698351
:1006A0007A838B839C832D833E834F83588789E095
:1006B000E82EF12CEC0EFD1ECE010196B7010E9432
:1006C000D2048E010F5E1F4FCE010596B8010E9425
:1006D000D2048985823040F08989823028F0C701B0
:1006E000B8010E944A0501C08FEF6896E6E00C94BD
:1006F0003F2EA8E1B0E0EFE7F3E00C94232E6983EE
:100700007A838B839C832D833E834F83588789E034
:10071000E82EF12CEC0EFD1ECE010196B7010E94D1
:10072000D2048E010F5E1F4FCE010596B8010E94C4
:10073000D2048985823040F08989823028F0C7014F
:10074000B8010E944A0501C081E06896E6E00C9479
:100750003F2EACE0B0E0EFEAF3E00C94272E698383
:100760007A838B839C83CE010196BE016B5F7F4FA2
:100770000E94D2048D81823061F1823050F1843048
:1007800021F48E81882351F12EC02F81388537FDC9
:1007900020C06E812F3131051CF06623F9F023C093
:1007A0008EE190E0821B930B29853A854B855C8511
:1007B00004C056954795379527958A95D2F76623B5
:1007C000B1F050954095309521953F4F4F4F5F4F79
:1007D0000EC020E030E040E050E009C02FEF3FEFD6
:1007E0004FEF5FE704C020E030E040E050E8B9019F
:1007F000CA012C96E2E00C94432EDF92EF92FF9216
:100800000F931F93FC01E480F58006811781D1804E
:100810008081823048F480E090E0A0E1B0E0E82AF6
:10082000F92A0A2B1B2BA5C0843009F49FC0823003
:1008300021F4EE24FF24870105C0E114F104010531
:10084000110519F4E0E0F0E096C0628173819FEF3A
:10085000623879070CF05BC022E83FEF261B370BAC
:100860002A3131052CF020E030E040E050E02AC091
:10087000B801A701022E04C0769567955795479554
:100880000A94D2F781E090E0A0E0B0E004C0880FC5
:10089000991FAA1FBB1F2A95D2F70197A109B10979
:1008A0008E219F21A023B1230097A105B10521F03E
:1008B00081E090E0A0E0B0E09A01AB01282B392B59
:1008C0004A2B5B2BDA01C9018F779070A070B07052
:1008D00080349105A105B10539F427FF09C0205CDA
:1008E0003F4F4F4F5F4F04C0215C3F4F4F4F5F4F13
:1008F000E0E0F0E02030A0E03A07A0E04A07A0E402
:100900005A0710F0E1E0F0E079018A0127C0603871
:10091000710564F5FB01E158FF4FD801C7018F77DE
:100920009070A070B07080349105A105B10539F4C4
:10093000E7FE0DC080E490E0A0E0B0E004C08FE3EB
:1009400090E0A0E0B0E0E80EF91E0A1F1B1F17FFA1
:1009500005C016950795F794E794319687E01695AC
:100960000795F794E7948A95D1F705C0EE24FF2404
:100970008701EFEFF0E06E2F679566276795902F60
:100980009F77D794DD24D7948E2F8695492F462BB9
:10099000582F5D29B701CA011F910F91FF90EF9069
:1009A000DF900895FC01DB01408151812281622F9B
:1009B0006F7770E0221F2227221F9381892F880FD3
:1009C000822B282F30E0991F9927991F11969C930D
:1009D000119721153105A9F54115510561057105DD
:1009E00011F482E037C082E89FEF13969C938E93B8
:1009F00012979A01AB0167E0220F331F441F551F66
:100A00006A95D1F783E08C930DC0220F331F441FEA
:100A1000551F12968D919C911397019713969C9355
:100A20008E931297203080E0380780E0480780E4FA
:100A3000580758F314962D933D934D935C93179755
:100A400008952F3F310579F4411551056105710570
:100A500019F484E08C93089564FF03C081E08C93C3
:100A600012C01C9210C02F57304013963C932E9307
:100A7000129783E08C9387E0440F551F661F771F02
:100A80008A95D1F7706414964D935D936D937C9322
:100A9000179708951F93DC01FB019C91923008F495
:100AA00047C08081823008F443C0943051F41196DD
:100AB0001C91843099F58181682F70E0611B710968
:100AC0003FC0843021F0923031F48230B9F181811D
:100AD000882389F12DC011961C9111978230F1F075
:100AE00081811817D9F412962D913C911397828128
:100AF00093818217930794F028173907BCF0149656
:100B00008D919D910D90BC91A02D248135814681C0
:100B10005781281739074A075B0718F4112341F05A
:100B20000AC082179307A407B50740F4112319F0F0
:100B300061E070E005C06FEF7FEF02C060E070E041
:100B4000CB011F910895DF93CF93CDB7DEB72897E0
:100B50000FB6F894DEBF0FBECDBF9C838B838B8115
:100B60009C81009709F42BC11A821982EB81FC81C8
:100B700083819481A581B681880F991FAA1FBB1F0D
:100B8000880F991FAA1FBB1F880F991FAA1FBB1F81
:100B90009C01AD0180E092E1AAE7B0E0BC01CD018B
:100BA0000E94F52DDA01C90101979A838983E0E457
:100BB000F0E01082E0E4F0E089819A81892F9927A2
:100BC0008083E9E2F0E089818083A0E4B0E0E0E4A2
:100BD000F0E0808180688C93EB81FC8182818130A0
:100BE00041F4A0E4B0E0E0E4F0E0808188608C9320
:100BF00007C0A0E4B0E0E0E4F0E08081877F8C9360
:100C0000EB81FC818181282F30E038872F838F8111
:100C100098858130910589F02F8138852230310502
:100C2000D9F08F819885009729F5A0E4B0E0E0E441
:100C3000F0E080818F7C8C931DC0A0E4B0E0E0E404
:100C4000F0E080818F7E8C93A0E4B0E0E0E4F0E0FF
:100C5000808180628C930EC0A0E4B0E0E0E4F0E01C
:100C6000808180618C93A0E4B0E0E0E4F0E08081DA
:100C700080628C93EB81FC818081282F30E03E8361
:100C80002D838D819E818730910509F449C02D8186
:100C90003E81283031055CF48D819E81853091053F
:100CA00099F02D813E812630310521F17AC08D8168
:100CB0009E818830910509F449C02D813E812930FB
:100CC000310509F459C06DC0A0E4B0E0E0E4F0E003
:100CD00080818D7F8C93A0E4B0E0E0E4F0E080813F
:100CE0008B7F8C93AAE2B0E0EAE2F0E080818B7F18
:100CF0008C9357C0A0E4B0E0E0E4F0E08081826033
:100D00008C93A0E4B0E0E0E4F0E080818B7F8C93F2
:100D1000AAE2B0E0EAE2F0E080818B7F8C9341C0F0
:100D2000A0E4B0E0E0E4F0E080818D7F8C93A0E46B
:100D3000B0E0E0E4F0E0808184608C93AAE2B0E06F
:100D4000EAE2F0E080818B7F8C932BC0A0E4B0E0DE
:100D5000E0E4F0E0808182608C93A0E4B0E0E0E425
:100D6000F0E0808184608C93AAE2B0E0EAE2F0E0F7
:100D700080818B7F8C9315C0A0E4B0E0E0E4F0E0CC
:100D8000808182608C93A0E4B0E0E0E4F0E08081B8
:100D900084608C93AAE2B0E0EAE2F0E080818460B3
:100DA0008C93ABE2B0E0EBE2F0E0808182608C9368
:100DB000AAE2B0E0EAE2F0E0808188618C932896B4
:100DC0000FB6F894DEBF0FBECDBFCF91DF9108956F
:100DD000DF93CF930F92CDB7DEB78983EBE2F0E0DC
:100DE0008081882F90E0807290700097B9F3ECE2D8
:100DF000F0E0898180830F90CF91DF910895DF9398
:100E0000CF93CDB7DEB7EBE2F0E080818823DCF74B
:100E1000ECE2F0E08081CF91DF910895DF93CF93F2
:100E200000D00F92CDB7DEB79B838A8319820EC0A4
:100E30008981282F30E08A819B81FC01E20FF31F1A
:100E400080810E94E80689818F5F89838981282FAC
:100E500030E08A819B81FC01E20FF31F80818823AF
:100E600039F70F900F900F90CF91DF9108950F9366
:100E70001F93DF93CF9300D00F92CDB7DEB79B8344
:100E80008A8319828981282F30E08A819B818C0195
:100E9000020F131F0E94FF06F80180830FC0898193
:100EA0008F5F89838981282F30E08A819B818C0123
:100EB000020F131F0E94FF06F80180838981282FEB
:100EC00030E08A819B81FC01E20FF31F8081833235
:100ED00031F78981282F30E08A819B81FC01E20F64
:100EE000F31F10820F900F900F90CF91DF911F9101
:100EF0000F910895DF93CF9300D000D0CDB7DEB728
:100F00009A838983E981FA818481282F30E03C83A8
:100F10002B838B819C818130910509F455C02B81F5
:100F20003C812230310509F4A0C08B819C8100975F
:100F300009F0DAC0E3E5F0E01082E981FA81868108
:100F4000882379F4A3E5B0E0E3E5F0E080818068F0
:100F50008C93A9E5B0E0E9E5F0E0808181608C93B5
:100F600021C0E981FA8186818130E1F4A3E5B0E016
:100F7000E3E5F0E0808180688C93A3E5B0E0E3E5F1
:100F8000F0E0808188608C93ACE5B0E0E981FA8183
:100F9000828193818C93A9E5B0E0E9E5F0E080815E
:100FA00082608C93A2E5B0E0E981FA818081918131
:100FB0008C93A3E5B0E0E3E5F0E09081E981FA816C
:100FC0008581892B8C9390C0EFE4F0E01082EEE4F1
:100FD000F0E01082E981FA818681882379F4AFE418
:100FE000B0E0EFE4F0E080818C608C93A9E5B0E0A4
:100FF000E9E5F0E0808184608C9323C0E981FA8187
:1010000086818130F1F4AFE4B0E0EFE4F0E080817C
:101010008C608C93AEE4B0E0EEE4F0E08081886018
:101020008C93AAE4B0E0E981FA81828193811196E0
:101030009C938E93A9E5B0E0E9E5F0E080818061C2
:101040008C93ACE4B0E0E981FA81808191811196C2
:101050009C938E93AEE4B0E0EEE4F0E09081E98101
:10106000FA818581892B8C933FC0E5E4F0E0108202
:10107000E981FA818681882329F4E5E4F0E080E8BB
:1010800080831AC0E981FA8186818130A9F4A5E4C0
:10109000B0E0E5E4F0E0808188688C93A3E4B0E000
:1010A000E981FA81828193818C93A9E5B0E0E9E539
:1010B000F0E0808180688C93A4E4B0E0E981FA815B
:1010C000808191818C93A5E4B0E0E5E4F0E090812B
:1010D000E981FA818581892B8C93A9E5B0E0E9E566
:1010E000F0E0808180648C930F900F900F900F90B0
:1010F000CF91DF910895DF93CF9300D00F92CDB7BA
:10110000DEB789838981282F30E03B832A838A8157
:101110009B8181309105A1F02A813B8122303105EC
:10112000E9F08A819B81009719F5E3E5F0E01082F0
:10113000A9E5B0E0E9E5F0E080818C7F8C9318C0F0
:10114000EFE4F0E01082EEE4F0E01082A9E5B0E018
:10115000E9E5F0E080818B7E8C930AC0E5E4F0E065
:101160001082A9E5B0E0E9E5F0E080818F738C930F
:101170000F900F900F90CF91DF910895DF93CF9351
:1011800000D000D00F92CDB7DEB79A8389836B83EE
:101190008B81282F30E03D832C838C819D81813091
:1011A000910581F02C813D812230310591F08C81B7
:1011B0009D810097A1F489819A8190933501809354
:1011C00034010DC089819A81909337018093360153
:1011D00006C089819A8190933901809338010F90DC
:1011E0000F900F900F900F90CF91DF9108951F9265
:1011F0000F920FB60F9211242F933F934F935F934B
:101200006F937F938F939F93AF93BF93EF93FF93CE
:10121000DF93CF93CDB7DEB7809134019091350144
:10122000009729F0E0913401F09135010995CF91B3
:10123000DF91FF91EF91BF91AF919F918F917F913E
:101240006F915F914F913F912F910F900FBE0F9033
:101250001F9018951F920F920FB60F9211242F9383
:101260003F934F935F936F937F938F939F93AF932E
:10127000BF93EF93FF93DF93CF93CDB7DEB780910A
:10128000340190913501009729F0E0913401F091FB
:1012900035010995CF91DF91FF91EF91BF91AF910A
:1012A0009F918F917F916F915F914F913F912F917E
:1012B0000F900FBE0F901F9018951F920F920FB6B0
:1012C0000F9211242F933F934F935F936F937F93CC
:1012D0008F939F93AF93BF93EF93FF93DF93CF933E
:1012E000CDB7DEB78091360190913701009729F094
:1012F000E0913601F09137010995CF91DF91FF918F
:10130000EF91BF91AF919F918F917F916F915F917D
:101310004F913F912F910F900FBE0F901F901895F6
:101320001F920F920FB60F9211242F933F934F935A
:101330005F936F937F938F939F93AF93BF93EF933D
:10134000FF93DF93CF93CDB7DEB7809136019091B5
:101350003701009729F0E0913601F09137010995A6
:10136000CF91DF91FF91EF91BF91AF919F918F91BD
:101370007F916F915F914F913F912F910F900FBE91
:101380000F901F9018951F920F920FB60F92112475
:101390002F933F934F935F936F937F938F939F937D
:1013A000AF93BF93EF93FF93DF93CF93CDB7DEB7A8
:1013B0008091380190913901009729F0E09138012E
:1013C000F09139010995CF91DF91FF91EF91BF9194
:1013D000AF919F918F917F916F915F914F913F91CD
:1013E0002F910F900FBE0F901F9018951F920F9284
:1013F0000FB60F9211242F933F934F935F936F93E8
:101400007F938F939F93AF93BF93EF93FF93DF935C
:10141000CF93CDB7DEB78091380190913901009715
:1014200029F0E0913801F09139010995CF91DF91D0
:10143000FF91EF91BF91AF919F918F917F916F91AC
:101440005F914F913F912F910F900FBE0F901F9082
:101450001895DF93CF9300D000D00F92CDB7DEB7B1
:1014600089836A834B838A81883008F0D5C089815B
:10147000843008F0D1C08981282F30E03D832C834F
:101480008C819D818130910509F443C02C813D817F
:10149000223031052CF48C819D81009771F0BCC005
:1014A0002C813D812230310509F45FC08C819D8102
:1014B0008330910509F485C0AFC08B818130A1F4E0
:1014C000AAE3B0E0EAE3F0E08081482F8A81282F88
:1014D00030E081E090E0022E02C0880F991F0A944C
:1014E000E2F7842B8C9398C0AAE3B0E0EAE3F0E043
:1014F0008081482F8A81282F30E081E090E0022E01
:1015000002C0880F991F0A94E2F7809584238C9378
:1015100083C08B818130A1F4A7E3B0E0E7E3F0E082
:101520008081482F8A81282F30E081E090E0022ED0
:1015300002C0880F991F0A94E2F7842B8C936CC029
:10154000A7E3B0E0E7E3F0E08081482F8A81282F0D
:1015500030E081E090E0022E02C0880F991F0A94CB
:10156000E2F7809584238C9357C08B818130A1F45E
:10157000A4E3B0E0E4E3F0E08081482F8A81282FE3
:1015800030E081E090E0022E02C0880F991F0A949B
:10159000E2F7842B8C9340C0A4E3B0E0E4E3F0E0F6
:1015A0008081482F8A81282F30E081E090E0022E50
:1015B00002C0880F991F0A94E2F7809584238C93C8
:1015C0002BC08B818130A1F4A1E3B0E0E1E3F0E036
:1015D0008081482F8A81282F30E081E090E0022E20
:1015E00002C0880F991F0A94E2F7842B8C9314C0D1
:1015F000A1E3B0E0E1E3F0E08081482F8A81282F69
:1016000030E081E090E0022E02C0880F991F0A941A
:10161000E2F7809584238C930F900F900F900F909A
:101620000F90CF91DF910895DF93CF9300D000D03A
:101630000F92CDB7DEB789836A834B838A81883066
:1016400008F0D5C08981843008F0D1C08981282F65
:1016500030E03D832C838C819D818130910509F49C
:1016600043C02C813D81223031052CF48C819D8139
:10167000009771F0BCC02C813D812230310509F406
:101680005FC08C819D818330910509F485C0AFC016
:101690008B818130A1F4ABE3B0E0EBE3F0E080813B
:1016A000482F8A81282F30E081E090E0022E02C08E
:1016B000880F991F0A94E2F7842B8C9398C0ABE3B0
:1016C000B0E0EBE3F0E08081482F8A81282F30E002
:1016D00081E090E0022E02C0880F991F0A94E2F781
:1016E000809584238C9383C08B818130A1F4A8E3FF
:1016F000B0E0E8E3F0E08081482F8A81282F30E0D5
:1017000081E090E0022E02C0880F991F0A94E2F750
:10171000842B8C936CC0A8E3B0E0E8E3F0E0808118
:10172000482F8A81282F30E081E090E0022E02C00D
:10173000880F991F0A94E2F7809584238C9357C0F1
:101740008B818130A1F4A5E3B0E0E5E3F0E0808196
:10175000482F8A81282F30E081E090E0022E02C0DD
:10176000880F991F0A94E2F7842B8C9340C0A5E35D
:10177000B0E0E5E3F0E08081482F8A81282F30E057
:1017800081E090E0022E02C0880F991F0A94E2F7D0
:10179000809584238C932BC08B818130A1F4A2E3AC
:1017A000B0E0E2E3F0E08081482F8A81282F30E02A
:1017B00081E090E0022E02C0880F991F0A94E2F7A0
:1017C000842B8C9314C0A2E3B0E0E2E3F0E08081CC
:1017D000482F8A81282F30E081E090E0022E02C05D
:1017E000880F991F0A94E2F7809584238C930F90B9
:1017F0000F900F900F900F90CF91DF910895DF938E
:10180000CF9300D000D00F92CDB7DEB78A836B8321
:1018100019828B81883008F084C08A81843008F076
:1018200080C08A81282F30E03D832C834C815D81EC
:101830004130510579F18C819D818230910534F4DC
:101840002C813D812115310569F06BC04C815D8192
:1018500042305105B9F18C819D818330910509F4A5
:1018600049C05FC0E9E3F0E08081282F30E08B8140
:10187000882F90E0A90102C0559547958A95E2F717
:10188000CA0181709070882319F081E0898349C072
:10189000198247C0E6E3F0E08081282F30E08B8199
:1018A000882F90E0A90102C0559547958A95E2F7E7
:1018B000CA0181709070882319F081E0898331C05A
:1018C00019822FC0E3E3F0E08081282F30E08B8184
:1018D000882F90E0A90102C0559547958A95E2F7B7
:1018E000CA0181709070882319F081E0898319C042
:1018F000198217C0E0E3F0E08081282F30E08B816F
:10190000882F90E0A90102C0559547958A95E2F786
:10191000CA0181709070882319F081E0898301C029
:10192000198289810F900F900F900F900F90CF9197
:10193000DF910895DF93CF9300D000D0CDB7DEB70D
:1019400089836A838981843090F58981282F30E0EA
:101950003C832B838B819C8181309105D1F02B813D
:101960003C81223031052CF48B819C81009761F001
:101970001EC02B813C812230310581F08B819C81FE
:101980008330910581F013C0EAE3F0E08A8180831F
:101990000EC0E7E3F0E08A81808309C0E4E3F0E071
:1019A0008A81808304C0E1E3F0E08A8180830F9024
:1019B0000F900F900F90CF91DF910895DF93CF9309
:1019C00000D000D0CDB7DEB789836A8389818430A7
:1019D00090F58981282F30E03C832B838B819C817B
:1019E00081309105D1F02B813C81223031052CF4DE
:1019F0008B819C81009761F01EC02B813C8122303D
:101A0000310581F08B819C818330910581F013C079
:101A1000EBE3F0E08A8180830EC0E8E3F0E08A81A6
:101A2000808309C0E5E3F0E08A81808304C0E2E3BB
:101A3000F0E08A8180830F900F900F900F90CF91EC
:101A4000DF910895DF93CF9300D000D0CDB7DEB7FC
:101A50008A8319828A81843090F58A81282F30E028
:101A60003C832B838B819C8181309105D1F02B812C
:101A70003C81223031052CF48B819C81009761F0F0
:101A80001EC02B813C812230310581F08B819C81ED
:101A90008330910581F013C0E9E3F0E08081898310
:101AA0000EC0E6E3F0E08081898309C0E3E3F0E063
:101AB0008081898304C0E0E3F0E0808189838981AB
:101AC0000F900F900F900F90CF91DF910895DF93BB
:101AD000CF93CDB7DEB72E970FB6F894DEBF0FBE0B
:101AE000CDBF82E060E041E00E94290A82E061E02F
:101AF00041E00E94290A80E090E0A0EAB1E48B87EF
:101B00009C87AD87BE876B857C858D859E8520E013
:101B100030E04AEF54E40E941F02DC01CB018F83C6
:101B20009887A987BA876F81788589859A8520E00B
:101B300030E040E85FE30E94790388232CF481E0E1
:101B400090E09E838D833FC06F81788589859A85DB
:101B500020E03FEF4FE757E40E94190318164CF5B9
:101B60006B857C858D859E8520E030E040E251E4E8
:101B70000E941F02DC01CB01BC01CD010E94490083
:101B8000DC01CB019E838D830FC088EC90E09C83A9
:101B90008B838B819C810197F1F79C838B838D8153
:101BA0009E8101979E838D838D819E81009769F729
:101BB00014C06F81788589859A850E944900DC016F
:101BC000CB019E838D838D819E819A8389838981B8
:101BD0009A810197F1F79A83898380E06FEF0E94E1
:101BE0009A0C88E30E94030E8CE00E94030E81E0B1
:101BF0000E94030E2E960FB6F894DEBF0FBECDBF27
:101C0000CF91DF910895DF93CF93CDB7DEB7E997FA
:101C10000FB6F894DEBF0FBECDBF89AF82E060E0A3
:101C200040E00E94140B80E090E0A0E8BFE38DABA1
:101C30009EABAFABB8AF6DA97EA98FA998AD20E0E0
:101C400030E04AEF54E40E941F02DC01CB0189AB73
:101C50009AABABABBCAB69A97AA98BA99CA920E0D4
:101C600030E040E85FE30E94790388232CF481E0B0
:101C700090E098AB8FA73FC069A97AA98BA99CA9CE
:101C800020E03FEF4FE757E40E94190318164CF588
:101C90006DA97EA98FA998AD20E030E040E251E423
:101CA0000E941F02DC01CB01BC01CD010E94490052
:101CB000DC01CB0198AB8FA70FC088EC90E09EA70A
:101CC0008DA78DA59EA50197F1F79EA78DA78FA53E
:101CD00098A9019798AB8FA78FA598A9009769F746
:101CE00014C069A97AA98BA99CA90E944900DC01AA
:101CF000CB0198AB8FA78FA598A99CA78BA78BA585
:101D00009CA50197F1F79CA78BA782E061E041E0D9
:101D10000E94140B80E090E0A0E8BFE38FA398A797
:101D2000A9A7BAA76FA178A589A59AA520E030E058
:101D30004AEF54E40E941F02DC01CB018BA39CA359
:101D4000ADA3BEA36BA17CA18DA19EA120E030E03C
:101D500040E85FE30E94790388232CF481E090E05F
:101D60009AA389A33FC06BA17CA18DA19EA120E075
:101D70003FEF4FE757E40E94190318164CF56FA187
:101D800078A589A59AA520E030E040E251E40E94C0
:101D90001F02DC01CB01BC01CD010E944900DC0126
:101DA000CB019AA389A30FC088EC90E098A38F8FF2
:101DB0008F8D98A10197F1F798A38F8F89A19AA190
:101DC00001979AA389A389A19AA1009769F714C0E2
:101DD0006BA17CA18DA19EA10E944900DC01CB01D9
:101DE0009AA389A389A19AA19E8F8D8F8D8D9E8D97
:101DF0000197F1F79E8F8D8F80E069AD0E94DE0C18
:101E000080E090E0A0E8BFE3898F9A8FAB8FBC8F12
:101E1000698D7A8D8B8D9C8D20E030E04AEF54E403
:101E20000E941F02DC01CB018D8B9E8BAF8BB88F84
:101E30006D897E898F89988D20E030E040E85FE3EE
:101E40000E94790388232CF481E090E09C8B8B8B9B
:101E50003FC06D897E898F89988D20E03FEF4FE7E5
:101E600057E40E94190318164CF5698D7A8D8B8DF5
:101E70009C8D20E030E040E251E40E941F02DC0132
:101E8000CB01BC01CD010E944900DC01CB019C8B40
:101E90008B8B0FC088EC90E09A8B898B89899A890B
:101EA0000197F1F79A8B898B8B899C8901979C8B81
:101EB0008B8B8B899C89009769F714C06D897E890B
:101EC0008F89988D0E944900DC01CB019C8B8B8B04
:101ED0008B899C89988B8F878F8598890197F1F7DB
:101EE000988B8F8782E061E040E00E94140B80E0D5
:101EF00090E0A0E8BFE38B879C87AD87BE876B85AA
:101F00007C858D859E8520E030E04AEF54E40E9478
:101F10001F02DC01CB018F839887A987BA876F8165
:101F2000788589859A8520E030E040E85FE30E946B
:101F3000790388232CF481E090E09E838D833FC059
:101F40006F81788589859A8520E03FEF4FE757E4D8
:101F50000E94190318164CF56B857C858D859E852E
:101F600020E030E040E251E40E941F02DC01CB019E
:101F7000BC01CD010E944900DC01CB019E838D8311
:101F80000FC088EC90E09C838B838B819C810197B0
:101F9000F1F79C838B838D819E8101979E838D8336
:101FA0008D819E81009769F714C06F81788589853E
:101FB0009A850E944900DC01CB019E838D838D812F
:101FC0009E819A83898389819A810197F1F79A8307
:101FD0008983E9960FB6F894DEBF0FBECDBFCF91CF
:101FE000DF910895DF93CF93CDB7DEB7E9970FB6B2
:101FF000F894DEBF0FBECDBF89AF82E060E041E064
:102000000E94140B80E090E0A0E8BFE38DAB9EAB94
:10201000AFABB8AF6DA97EA98FA998AD20E030E035
:102020004AEF54E40E941F02DC01CB0189AB9AAB5A
:10203000ABABBCAB69A97AA98BA99CA920E030E025
:1020400040E85FE30E94790388232CF481E090E06C
:1020500098AB8FA73FC069A97AA98BA99CA920E05A
:102060003FEF4FE757E40E94190318164CF56DA98E
:102070007EA98FA998AD20E030E040E251E40E94B3
:102080001F02DC01CB01BC01CD010E944900DC0133
:10209000CB0198AB8FA70FC088EC90E09EA78DA7CF
:1020A0008DA59EA50197F1F79EA78DA78FA598A94D
:1020B000019798AB8FA78FA598A9009769F714C0CF
:1020C00069A97AA98BA99CA90E944900DC01CB01CE
:1020D00098AB8FA78FA598A99CA78BA78BA59CA52C
:1020E0000197F1F79CA78BA782E061E041E00E9495
:1020F000140B80E090E0A0E8BFE38FA398A7A9A706
:10210000BAA76FA178A589A59AA520E030E04AEF8B
:1021100054E40E941F02DC01CB018BA39CA3ADA35E
:10212000BEA36BA17CA18DA19EA120E030E040E880
:102130005FE30E94790388232CF481E090E09AA366
:1021400089A33FC06BA17CA18DA19EA120E03FEFA0
:102150004FE757E40E94190318164CF56FA178A5B4
:1021600089A59AA520E030E040E251E40E941F02D8
:10217000DC01CB01BC01CD010E944900DC01CB0197
:102180009AA389A30FC088EC90E098A38F8F8F8DBE
:1021900098A10197F1F798A38F8F89A19AA1019730
:1021A0009AA389A389A19AA1009769F714C06BA18A
:1021B0007CA18DA19EA10E944900DC01CB019AA3C4
:1021C00089A389A19AA19E8F8D8F8D8D9E8D019758
:1021D000F1F79E8F8D8F80E069AD0E94DE0C80E06C
:1021E00090E0A0E8BFE3898F9A8FAB8FBC8F698D99
:1021F0007A8D8B8D9C8D20E030E04AEF54E40E9474
:102200001F02DC01CB018D8B9E8BAF8BB88F6D894C
:102210007E898F89988D20E030E040E85FE30E945E
:10222000790388232CF481E090E09C8B8B8B3FC05A
:102230006D897E898F89988D20E03FEF4FE757E4C5
:102240000E94190318164CF5698D7A8D8B8D9C8D23
:1022500020E030E040E251E40E941F02DC01CB01AB
:10226000BC01CD010E944900DC01CB019C8B8B8B12
:102270000FC088EC90E09A8B898B89899A890197A5
:10228000F1F79A8B898B8B899C8901979C8B8B8B1F
:102290008B899C89009769F714C06D897E898F8925
:1022A000988D0E944900DC01CB019C8B8B8B8B8924
:1022B0009C89988B8F878F8598890197F1F7988BE8
:1022C0008F8782E061E040E00E94140B80E090E0A4
:1022D000A0E8BFE38B879C87AD87BE876B857C8535
:1022E0008D859E8520E030E04AEF54E40E941F0275
:1022F000DC01CB018F839887A987BA876F817885A6
:1023000089859A8520E030E040E85FE30E94790308
:1023100088232CF481E090E09E838D833FC06F8101
:10232000788589859A8520E03FEF4FE757E40E9442
:10233000190318164CF56B857C858D859E8520E0EC
:1023400030E040E251E40E941F02DC01CB01BC01FD
:10235000CD010E944900DC01CB019E838D830FC01B
:1023600088EC90E09C838B838B819C810197F1F7B3
:102370009C838B838D819E8101979E838D838D812C
:102380009E81009769F714C06F81788589859A8549
:102390000E944900DC01CB019E838D838D819E814B
:1023A0009A83898389819A810197F1F79A83898336
:1023B000E9960FB6F894DEBF0FBECDBFCF91DF9187
:1023C0000895DF93CF9300D00F92CDB7DEB79B83F4
:1023D0008A8319820EC08981282F30E08A819B81EF
:1023E000FC01E20FF31F80810E94F20F89818F5F51
:1023F00089838981282F30E08A819B81FC01E20F4B
:10240000F31F8081882339F70F900F900F90CF91A1
:10241000DF910895DF93CF9300D000D00F92CDB716
:10242000DEB78A836B838A81282F30E03D832C833B
:102430008C819D8181309105C1F02C813D812230BC
:1024400031052CF48C819D81009761F019C02C819D
:102450003D812230310569F08C819D818330910569
:1024600061F00EC08B8189830BC08B81805C898376
:1024700007C08B81805F898303C08B81805B8983E8
:10248000898180680E94030E0F900F900F900F902B
:102490000F90CF91DF910895DF93CF9300D000D0BC
:1024A000CDB7DEB789836A835C834B8389816A8178
:1024B0000E940A128B819C810E94E1110F900F9063
:1024C0000F900F90CF91DF910895DF93CF93CDB709
:1024D000DEB762970FB6F894DEBF0FBECDBF9A8B02
:1024E000898B89899A899E012F5F3F4FB9014AE004
:1024F00050E00E944E2ECE0101960E94E11162969C
:102500000FB6F894DEBF0FBECDBFCF91DF91089517
:10251000DF93CF93CDB7DEB781E00E94030ECF915A
:10252000DF910895DF93CF93CDB7DEB760970FB6F5
:10253000F894DEBF0FBECDBF81E060E040E00E94B6
:10254000290A81E061E040E00E94290A81E062E01E
:1025500040E00E94290A81E063E040E00E94290AED
:1025600081E064E040E00E94290A81E065E040E00B
:102570000E94290A81E066E040E00E94290A81E089
:1025800067E040E00E94290A1F86ABC081E06F85AA
:1025900041E00E94290A81E06F8540E00E94140B0F
:1025A000188A22C08889982F9C5F81E0692F0E9439
:1025B000FF0B8823B1F48F85882F90E0880F991F37
:1025C000880F991F982F8889890F8F5F0E94761333
:1025D00060960FB6F894DEBF0FBECDBFCF91DF91EE
:1025E000089588898F5F888B88898430D8F281E04C
:1025F0006F8540E00E94290A80E090E0A0E2B1E40B
:102600008B879C87AD87BE876B857C858D859E85F6
:1026100020E030E04AEF54E40E941F02DC01CB01CD
:102620008F839887A987BA876F81788589859A85EE
:1026300020E030E040E85FE30E94790388232CF437
:1026400081E090E09E838D833FC06F81788589858E
:102650009A8520E03FEF4FE757E40E9419031816D0
:102660004CF56B857C858D859E8520E030E040E2D1
:1026700051E40E941F02DC01CB01BC01CD010E948C
:102680004900DC01CB019E838D830FC088EC90E074
:102690009C838B838B819C810197F1F79C838B8337
:1026A0008D819E8101979E838D838D819E81009770
:1026B00069F714C06F81788589859A850E944900E1
:1026C000DC01CB019E838D838D819E819A838983DA
:1026D00089819A810197F1F79A8389838F858F5F2A
:1026E0008F878F85843008F451CF4ECFDF93CF93FF
:1026F00000D000D0CDB7DEB78A8319828A81282F17
:1027000030E03C832B838B819C818D30910571F16E
:102710002B813C812E30310584F48B819C81883063
:102720009105F1F02B813C812C303105E1F08B815A
:102730009C818430910589F024C02B813C812F300D
:102740003105C9F08B819C818F30910594F02B81EC
:102750003C812031310591F014C085E2898313C09A
:102760008AE2898310C08DE289830DC08FE289835C
:102770000AC0198208C085E6898305C08BE2898377
:1027800002C08A81898389810F900F900F900F90EA
:10279000CF91DF9108950F931F93DF93CF93CDB720
:1027A000DEB7CE5AD1400FB6F894DEBF0FBECDBF14
:1027B0000E94670DCE0189569E4FCB55DE4F9983FF
:1027C0008883C55AD1408DE291E0C955DE4F998387
:1027D0008883C75AD14097E0C755DE4F9883C95ABE
:1027E000D140C955DE4FE881F981C75AD1400080F8
:1027F000C955DE4F88819981C75AD1400196C95584
:10280000DE4F99838883C75AD140CB55DE4FE8818C
:10281000F981C55AD1400082CB55DE4F888199811C
:10282000C55AD1400196CB55DE4F99838883C55A4E
:10283000D140C755DE4F9881C95AD1409150C755F4
:10284000DE4F9883C95AD140C755DE4FE881C95A37
:10285000D140EE2331F6CE0189569E4F0E94A3054A
:102860007894CE0182569E4FC655DE4F9983888359
:10287000CA5AD14086E291E0C455DE4F99838883DD
:10288000CC5AD14097E0C255DE4F9883CE5AD14002
:10289000C455DE4FE881F981CC5AD1400080C4553F
:1028A000DE4F88819981CC5AD1400196C455DE4FC4
:1028B00099838883CC5AD140C655DE4FE881F9818F
:1028C000CA5AD1400082C655DE4F88819981CA5AC2
:1028D000D1400196C655DE4F99838883CA5AD140AC
:1028E000C255DE4F9881CE5AD1409150C255DE4F2D
:1028F0009883CE5AD140C255DE4FE881CE5AD1409E
:10290000EE2331F6CE0182569E4F0E947A0789EE61
:102910009DE261E00E94BE085BC381E00E94E80680
:102920000E94881280E690E00E94E11181E060E060
:102930000E940A1210923A01C6C080913A01082FF3
:1029400010E00E949212F801E05CFE4F80838AE260
:102950000E94F20FFE01ED56FE4F80E090E0AAEFDC
:10296000B3E480839183A283B3838E0101571E4F0A
:10297000FE01ED56FE4F608171818281938120E0DE
:1029800030E04AEF54E40E941F02DC01CB01F80161
:1029900080839183A283B383FE01E157FE4F608160
:1029A00071818281938120E030E040E85FE30E9402
:1029B0007903882344F4FE01E357FE4F81E090E061
:1029C0009183808364C0FE01E157FE4F6081718175
:1029D0008281938120E03FEF4FE757E40E94190383
:1029E00018160CF043C0FE01ED56FE4F6081718158
:1029F0008281938120E030E040E251E40E941F0296
:102A0000DC01CB018E0103571E4FBC01CD010E949A
:102A10004900DC01CB01F801918380831FC0FE01D6
:102A2000E557FE4F88EC90E091838083FE01E557E7
:102A3000FE4F808191810197F1F7FE01E557FE4F2E
:102A400091838083DE01A357BE4FFE01E357FE4F03
:102A500080819181019711969C938E93FE01E3579B
:102A6000FE4F808191810097D1F628C08E010357D7
:102A70001E4FFE01E157FE4F60817181828193817B
:102A80000E944900DC01CB01F80191838083DE01C3
:102A9000A757BE4FFE01E357FE4F808191811196EB
:102AA0009C938E93FE01E757FE4F808191810197A1
:102AB000F1F7FE01E757FE4F9183808380913A0141
:102AC0008F5F80933A0180913A01853008F435CFC9
:102AD0000E9492128536E1F7FE01EB57FE4F80E02F
:102AE00090E0AAEFB3E480839183A283B3838E0145
:102AF0000F571E4FFE01EB57FE4F6081718182819F
:102B0000938120E030E04AEF54E40E941F02DC0190
:102B1000CB01F80180839183A283B383FE01EF5739
:102B2000FE4F608171818281938120E030E040E836
:102B30005FE30E947903882344F4FE01E158FE4FCD
:102B400081E090E09183808364C0FE01EF57FE4FE7
:102B5000608171818281938120E03FEF4FE757E4EC
:102B60000E94190318160CF043C0FE01EB57FE4FEC
:102B7000608171818281938120E030E040E251E404
:102B80000E941F02DC01CB018E0101581E4FBC01C7
:102B9000CD010E944900DC01CB01F80191838083C3
:102BA0001FC0FE01E358FE4F88EC90E091838083C4
:102BB000FE01E358FE4F808191810197F1F7FE01FC
:102BC000E358FE4F91838083DE01A158BE4FFE0182
:102BD000E158FE4F80819181019711969C938E93CD
:102BE000FE01E158FE4F808191810097D1F627C008
:102BF0008E0101581E4FFE01EF57FE4F608171811B
:102C0000828193810E944900DC01CB01F80191830C
:102C10008083DE01A558BE4FFE01E158FE4F808142
:102C200091818D939C93FE01E558FE4F80819181A7
:102C30000197F1F7FE01E558FE4F918380830E94D2
:102C4000881280E790E00E94E11121E830E081E005
:102C500060E0A9010E944C1210923A01C6C0809116
:102C60003A01082F10E00E949212F801EB5BFE4F30
:102C700080838AE20E94F20FFE01E958FE4F80E055
:102C800090E0AAEFB3E480839183A283B3838E01A3
:102C90000D581E4FFE01E958FE4F608171818281FF
:102CA000938120E030E04AEF54E40E941F02DC01EF
:102CB000CB01F80180839183A283B383FE01ED5899
:102CC000FE4F608171818281938120E030E040E895
:102CD0005FE30E947903882344F4FE01EF58FE4F1E
:102CE00081E090E09183808364C0FE01ED58FE4F47
:102CF000608171818281938120E03FEF4FE757E44B
:102D00000E94190318160CF043C0FE01E958FE4F4B
:102D1000608171818281938120E030E040E251E462
:102D20000E941F02DC01CB018E010F581E4FBC0117
:102D3000CD010E944900DC01CB01F8019183808321
:102D40001FC0FE01E159FE4F88EC90E09183808323
:102D5000FE01E159FE4F808191810197F1F7FE015B
:102D6000E159FE4F91838083DE01AF58BE4FFE01D3
:102D7000EF58FE4F80819181019711969C938E931D
:102D8000FE01EF58FE4F808191810097D1F628C057
:102D90008E010F581E4FFE01ED58FE4F608171816C
:102DA000828193810E944900DC01CB01F80191836B
:102DB0008083DE01A359BE4FFE01EF58FE4F808194
:102DC000918111969C938E93FE01E359FE4F808171
:102DD00091810197F1F7FE01E359FE4F91838083C2
:102DE00080913A018F5F80933A0180913A0185305A
:102DF00008F435CF0E9492128536E1F7FE01E759BB
:102E0000FE4F80E090E0AAEFB3E480839183A28339
:102E1000B3838E010B591E4FFE01E759FE4F6081AF
:102E200071818281938120E030E04AEF54E40E9476
:102E30001F02DC01CB01F80180839183A283B3835D
:102E4000FE01EB59FE4F608171818281938120E008
:102E500030E040E85FE30E947903882344F4FE01F8
:102E6000ED59FE4F81E090E09183808364C0FE01C4
:102E7000EB59FE4F608171818281938120E03FEFA9
:102E80004FE757E40E94190318160CF043C0FE01E7
:102E9000E759FE4F608171818281938120E030E0AB
:102EA00040E251E40E941F02DC01CB018E010D596A
:102EB0001E4FBC01CD010E944900DC01CB01F8018D
:102EC000918380831FC0FE01EF59FE4F88EC90E094
:102ED00091838083FE01EF59FE4F8081918101979C
:102EE000F1F7FE01EF59FE4F91838083DE01AD596A
:102EF000BE4FFE01ED59FE4F8081918101971196E1
:102F00009C938E93FE01ED59FE4F80819181009735
:102F1000D1F628C08E010D591E4FFE01EB59FE4F10
:102F200060817181828193810E944900DC01CB0123
:102F3000F80191838083DE01A15ABE4FFE01ED5955
:102F4000FE4F8081918111969C938E93FE01E15AF0
:102F5000FE4F808191810197F1F7FE01E15AFE4F0A
:102F60009183808310923A010FC080913A01882F9B
:102F700090E0FC01E05CFE4F80810E94E8068091B9
:102F80003A018F5F80933A0180913A01853068F36E
:102F900010923A010FC080913A01882F90E0FC0115
:102FA000EB5BFE4F80810E94E80680913A018F5FC3
:102FB00080933A0180913A01853068F30E94FF06C0
:102FC00080933B0180913B01882311F40E94881279
:102FD00080913B01813009F0A0CC0E9488128DE8DD
:102FE00090E00E94E1112BE930E081E060E0A9016E
:102FF0000E944C120E94921280933C01FE01E55AFD
:10300000FE4F80E090E0AAEFB3E480839183A28337
:10301000B3838E01095A1E4FFE01E55AFE4F6081AF
:1030200071818281938120E030E04AEF54E40E9474
:103030001F02DC01CB01F80180839183A283B3835B
:10304000FE01E95AFE4F608171818281938120E007
:1030500030E040E85FE30E947903882344F4FE01F6
:10306000EB5AFE4F81E090E09183808364C0FE01C3
:10307000E95AFE4F608171818281938120E03FEFA8
:103080004FE757E40E94190318160CF043C0FE01E5
:10309000E55AFE4F608171818281938120E030E0AA
:1030A00040E251E40E941F02DC01CB018E010B5A69
:1030B0001E4FBC01CD010E944900DC01CB01F8018B
:1030C000918380831FC0FE01ED5AFE4F88EC90E093
:1030D00091838083FE01ED5AFE4F8081918101979B
:1030E000F1F7FE01ED5AFE4F91838083DE01AB5A6A
:1030F000BE4FFE01EB5AFE4F8081918101971196E0
:103100009C938E93FE01EB5AFE4F80819181009734
:10311000D1F628C08E010B5A1E4FFE01E95AFE4F10
:1031200060817181828193810E944900DC01CB0121
:10313000F80191838083DE01AF5ABE4FFE01EB5A46
:10314000FE4F8081918111969C938E93FE01EF5AE0
:10315000FE4F808191810197F1F7FE01EF5AFE4FFA
:103160009183808380913C018B3229F080913C01D6
:103170008D3209F03FCF80913C018B3209F07DC642
:1031800082E00E94E8060E9488128BEA90E00E948A
:10319000E11129EB30E081E060E0A9010E944C12CE
:1031A00010923A01C6C080913A01082F10E00E94A7
:1031B0009212F801E05CFE4F80838AE20E94F20FD7
:1031C000FE01E35BFE4F80E090E0AAEFB3E4808372
:1031D0009183A283B3838E01075B1E4FFE01E35BE5
:1031E000FE4F608171818281938120E030E04AEF5F
:1031F00054E40E941F02DC01CB01F801808391831B
:10320000A283B383FE01E75BFE4F608171818281FF
:10321000938120E030E040E85FE30E947903882357
:1032200044F4FE01E95BFE4F81E090E091838083EE
:1032300064C0FE01E75BFE4F6081718182819381F2
:1032400020E03FEF4FE757E40E94190318160CF0F7
:1032500043C0FE01E35BFE4F6081718182819381F7
:1032600020E030E040E251E40E941F02DC01CB018B
:103270008E01095B1E4FBC01CD010E944900DC019B
:10328000CB01F801918380831FC0FE01EB5BFE4FF1
:1032900088EC90E091838083FE01EB5BFE4F8081A0
:1032A00091810197F1F7FE01EB5BFE4F91838083E3
:1032B000DE01A95BBE4FFE01E95BFE4F808191817B
:1032C000019711969C938E93FE01E95BFE4F8081DE
:1032D00091810097D1F628C08E01095B1E4FFE0137
:1032E000E75BFE4F60817181828193810E9449007A
:1032F000DC01CB01F80191838083DE01AD5BBE4F21
:10330000FE01E95BFE4F8081918111969C938E9323
:10331000FE01ED5BFE4F808191810197F1F7FE0187
:10332000ED5BFE4F9183808380913A018F5F8093A4
:103330003A0180913A01853008F435CF0E9492120B
:103340008536E1F7FE01E15CFE4F80E090E0AAEFF8
:10335000B3E480839183A283B3838E01055C1E4F07
:10336000FE01E15CFE4F608171818281938120E0EA
:1033700030E04AEF54E40E941F02DC01CB01F80167
:1033800080839183A283B383FE01E55CFE4F60815D
:1033900071818281938120E030E040E85FE30E9408
:1033A0007903882344F4FE01E75CFE4F81E090E05E
:1033B0009183808364C0FE01E55CFE4F6081718172
:1033C0008281938120E03FEF4FE757E40E94190389
:1033D00018160CF043C0FE01E15CFE4F6081718164
:1033E0008281938120E030E040E251E40E941F029C
:1033F000DC01CB018E01075C1E4FBC01CD010E9498
:103400004900DC01CB01F801918380831FC0FE01DC
:10341000E95CFE4F88EC90E091838083FE01E95CDB
:10342000FE4F808191810197F1F7FE01E95CFE4F2B
:1034300091838083DE01A75CBE4FFE01E75CFE4FF7
:1034400080819181019711969C938E93FE01E75C98
:10345000FE4F808191810097D1F628C08E01075CD4
:103460001E4FFE01E55CFE4F608171818281938178
:103470000E944900DC01CB01F80191838083DE01C9
:10348000AB5CBE4FFE01E75CFE4F808191811196DF
:103490009C938E93FE01EB5CFE4F8081918101979E
:1034A000F1F7FE01EB5CFE4F9183808310923A01AD
:1034B0000FC080913A01882F90E0FC01E05CFE4F44
:1034C00080810E94E80680913A018F5F80933A01E3
:1034D00080913A01853068F30E94FF0680933B019A
:1034E00080913B01813009F04AC010923D010E9459
:1034F000881220EC30E080E061E0A9010E944C12CB
:103500002FEC30E081E063E0A9010E944C121092A0
:103510004A0180914A018F30E0F30E9488120E9494
:10352000FF0680933F0112C02BED30E080E060E0A9
:10353000A9010E944C122BEE30E081E063E0A9016A
:103540000E944C120E94FF0680933F0180913F0130
:10355000813051F380913F01882309F03ECD0E94D4
:10356000881224EF30E080E062E0A9010E944C1252
:1035700010924A0180914A018F30E0F32ECD809164
:103580003B01882309F029CD80913D018F5F809315
:103590003D0180913D018330E1F484E00E94E80622
:1035A0000E94881221E031E080E061E0A9010E94E0
:1035B0004C122FE031E081E060E0A9010E944C1242
:1035C00010924A0180914A018C33E0F310923D0140
:1035D00004CD82E00E94E8060E9488128BEA90E007
:1035E0000E94E11129EB30E081E060E0A9010E9436
:1035F0004C1210923A01C6C080913A01082F10E097
:103600000E949212F801E05CFE4F80838AE20E94E1
:10361000F20FFE01EF5CFE4F80E090E0AAEFB3E412
:1036200080839183A283B3838E01035D1E4FFE01CD
:10363000EF5CFE4F608171818281938120E030E0F8
:103640004AEF54E40E941F02DC01CB01F8018083A1
:103650009183A283B383FE01E35DFE4F608171819C
:103660008281938120E030E040E85FE30E947903AB
:10367000882344F4FE01E55DFE4F81E090E09183F4
:10368000808364C0FE01E35DFE4F608171818281B1
:10369000938120E03FEF4FE757E40E94190318168B
:1036A0000CF043C0FE01EF5CFE4F608171818281AE
:1036B000938120E030E040E251E40E941F02DC01EF
:1036C000CB018E01055D1E4FBC01CD010E9449005A
:1036D000DC01CB01F801918380831FC0FE01E75D0F
:1036E000FE4F88EC90E091838083FE01E75DFE4F02
:1036F000808191810197F1F7FE01E75DFE4F918393
:103700008083DE01A55DBE4FFE01E55DFE4F808139
:103710009181019711969C938E93FE01E55DFE4F7A
:10372000808191810097D1F628C08E01055D1E4FE2
:10373000FE01E35DFE4F60817181828193810E9471
:103740004900DC01CB01F80191838083DE01A95D92
:10375000BE4FFE01E55DFE4F8081918111969C93E5
:103760008E93FE01E95DFE4F808191810197F1F713
:10377000FE01E95DFE4F9183808380913A018F5F66
:1037800080933A0180913A01853008F435CF0E9448
:1037900092128536E1F7FE01ED5DFE4F80E090E08C
:1037A000AAEFB3E480839183A283B3838E01015E89
:1037B0001E4FFE01ED5DFE4F60817181828193811C
:1037C00020E030E04AEF54E40E941F02DC01CB010C
:1037D000F80180839183A283B383FE01E15EFE4FF3
:1037E000608171818281938120E030E040E85FE375
:1037F0000E947903882344F4FE01E35EFE4F81E0DA
:1038000090E09183808364C0FE01E15EFE4F6081A1
:1038100071818281938120E03FEF4FE757E40E945E
:10382000190318160CF043C0FE01ED5DFE4F6081D8
:1038300071818281938120E030E040E251E40E9476
:103840001F02DC01CB018E01035E1E4FBC01CD01C6
:103850000E944900DC01CB01F801918380831FC0E5
:10386000FE01E55EFE4F88EC90E091838083FE01CF
:10387000E55EFE4F808191810197F1F7FE01E55EE3
:10388000FE4F91838083DE01A35EBE4FFE01E35EA7
:10389000FE4F80819181019711969C938E93FE013A
:1038A000E35EFE4F808191810097D1F628C08E01A2
:1038B000035E1E4FFE01E15EFE4F608171818281D9
:1038C00093810E944900DC01CB01F8019183808340
:1038D000DE01A75EBE4FFE01E35EFE4F8081918157
:1038E00011969C938E93FE01E75EFE4F808191813D
:1038F0000197F1F7FE01E75EFE4F918380831092FE
:103900003A010FC080913A01882F90E0FC01E05C01
:10391000FE4F80810E94E80680913A018F5F80937C
:103920003A0180913A01853068F30E94FF06809346
:103930003B0180913B01813009F04AC010923D016A
:103940000E94881220EC30E080E061E0A9010E9432
:103950004C122FEC30E081E063E0A9010E944C1290
:1039600010924A0180914A018F30E0F30E94881240
:103970000E94FF0680933F0112C02BED30E080E0F3
:1039800060E0A9010E944C122BEE30E081E063E080
:10399000A9010E944C120E94FF0680933F01809172
:1039A0003F01813051F380913F01882309F015CB0D
:1039B0000E94881224EF30E080E062E0A9010E94BA
:1039C0004C1210924A0180914A018F30E0F305CBEE
:1039D00080913B01882309F000CB80913D018F5FEE
:1039E00080933D0180913D018330E1F484E00E94A9
:1039F000E8060E94881221E031E080E061E0A90140
:103A00000E944C122FE031E081E060E0A9010E94A9
:103A10004C1210924A0180914A018C33E0F31092CB
:103A20003D01DBCA82E00E94E8060E9488128BEA10
:103A300090E00E94E11129EB30E081E060E0A90113
:103A40000E944C1210923A01C6C080913A01082F90
:103A500010E00E949212F801E05CFE4F80838AE23F
:103A60000E94F20FFE01EB5EFE4F80E090E0AAEFB5
:103A7000B3E480839183A283B3838E010F5E1E4FD4
:103A8000FE01EB5EFE4F608171818281938120E0B7
:103A900030E04AEF54E40E941F02DC01CB01F80140
:103AA00080839183A283B383FE01EF5EFE4F60812A
:103AB00071818281938120E030E040E85FE30E94E1
:103AC0007903882344F4FE01E15FFE4F81E090E03A
:103AD0009183808364C0FE01EF5EFE4F608171813F
:103AE0008281938120E03FEF4FE757E40E94190362
:103AF00018160CF043C0FE01EB5EFE4F6081718131
:103B00008281938120E030E040E251E40E941F0274
:103B1000DC01CB018E01015F1E4FBC01CD010E9473
:103B20004900DC01CB01F801918380831FC0FE01B5
:103B3000E35FFE4F88EC90E091838083FE01E35FBA
:103B4000FE4F808191810197F1F7FE01E35FFE4F07
:103B500091838083DE01A15FBE4FFE01E15FFE4FD6
:103B600080819181019711969C938E93FE01E15F74
:103B7000FE4F808191810097D1F628C08E01015FB0
:103B80001E4FFE01EF5EFE4F608171818281938145
:103B90000E944900DC01CB01F80191838083DE01A2
:103BA000A55FBE4FFE01E15FFE4F808191811196BE
:103BB0009C938E93FE01E55FFE4F8081918101977A
:103BC000F1F7FE01E55FFE4F9183808380913A011A
:103BD0008F5F80933A0180913A01853008F435CFA8
:103BE0000E9492128536E1F7FE01E95FFE4F80E008
:103BF00090E0AAEFB3E480839183A283B3838E0124
:103C00000D5F1E4FFE01E95FFE4F60817181828171
:103C1000938120E030E04AEF54E40E941F02DC016F
:103C2000CB01F80180839183A283B383FE01ED5F12
:103C3000FE4F608171818281938120E030E040E815
:103C40005FE30E947903882344F4FE01EF5FFE4F97
:103C500081E090E09183808364C0FE01ED5FFE4FC0
:103C6000608171818281938120E03FEF4FE757E4CB
:103C70000E94190318160CF043C0FE01E95FFE4FC5
:103C8000608171818281938120E030E040E251E4E3
:103C90000E941F02DC01CB018E010F5F1E4FBC0191
:103CA000CD010E944900DC01CB01F80191838083A2
:103CB0001FC0FE01E150FF4F88EC90E091838083AC
:103CC000FE01E150FF4F808191810197F1F7FE01E4
:103CD000E150FF4F91838083DE01AF5FBE4FFE0155
:103CE000EF5FFE4F80819181019711969C938E9397
:103CF000FE01EF5FFE4F808191810097D1F628C0D1
:103D00008E010F5F1E4FFE01ED5FFE4F60817181DE
:103D1000828193810E944900DC01CB01F8019183EB
:103D20008083DE01A350BF4FFE01EF5FFE4F808115
:103D3000918111969C938E93FE01E350FF4F8081F9
:103D400091810197F1F7FE01E350FF4F918380834A
:103D500010923A010FC080913A01882F90E0FC0147
:103D6000E05CFE4F80810E94E80680913A018F5FFF
:103D700080933A0180913A01853068F30E94FF06F2
:103D800080933B0180913B01813009F04AC0109241
:103D90003D010E94881220EC30E080E061E0A90142
:103DA0000E944C122FEC30E081E063E0A9010E94F8
:103DB0004C1210924A0180914A018F30E0F30E9428
:103DC00088120E94FF0680933F0112C02BED30E065
:103DD00080E060E0A9010E944C122BEE30E081E00F
:103DE00063E0A9010E944C120E94FF0680933F01EC
:103DF00080913F01813051F380913F01882309F088
:103E0000ECC80E94881224EF30E080E062E0A90153
:103E10000E944C1210924A0180914A018F30E0F3C7
:103E2000DCC880913B01882309F0D7C880913D010F
:103E30008F5F80933D0180913D01833011F00C94A0
:103E4000DB2D84E00E94E8060E94881221E031E028
:103E500080E061E0A9010E944C122FE031E081E096
:103E600060E0A9010E944C1210924A0180914A011F
:103E70008C33E0F310923D01B0C880913C018D324B
:103E800009F0ABC883E00E94E8060E9488128BEA22
:103E900090E00E94E11129EB30E081E060E0A901AF
:103EA0000E944C1210923A01C6C080913A01082F2C
:103EB00010E00E949212F801E05CFE4F80838AE2DB
:103EC0000E94F20FFE01E750FF4F80E090E0AAEF62
:103ED000B3E480839183A283B3838E010B501F4F81
:103EE000FE01E750FF4F608171818281938120E064
:103EF00030E04AEF54E40E941F02DC01CB01F801DC
:103F000080839183A283B383FE01EB50FF4F6081D6
:103F100071818281938120E030E040E85FE30E947C
:103F20007903882344F4FE01ED50FF4F81E090E0D7
:103F30009183808364C0FE01EB50FF4F60817181EB
:103F40008281938120E03FEF4FE757E40E941903FD
:103F500018160CF043C0FE01E750FF4F60817181DD
:103F60008281938120E030E040E251E40E941F0210
:103F7000DC01CB018E010D501F4FBC01CD010E9411
:103F80004900DC01CB01F801918380831FC0FE0151
:103F9000EF50FF4F88EC90E091838083FE01EF505B
:103FA000FF4F808191810197F1F7FE01EF50FF4FA4
:103FB00091838083DE01AD50BF4FFE01ED50FF4F76
:103FC00080819181019711969C938E93FE01ED5013
:103FD000FF4F808191810097D1F628C08E010D504E
:103FE0001F4FFE01EB50FF4F6081718182819381F1
:103FF0000E944900DC01CB01F80191838083DE013E
:10400000A151BF4FFE01ED50FF4F8081918111966C
:104010009C938E93FE01E151FF4F80819181019726
:10402000F1F7FE01E151FF4F9183808380913A01C6
:104030008F5F80933A0180913A01853008F435CF43
:104040000E9492128536E1F7FE01E551FF4F80E0B4
:1040500090E0AAEFB3E480839183A283B3838E01BF
:1040600009511F4FFE01E551FF4F6081718182812F
:10407000938120E030E04AEF54E40E941F02DC010B
:10408000CB01F80180839183A283B383FE01E951C0
:10409000FF4F608171818281938120E030E040E8B0
:1040A0005FE30E947903882344F4FE01EB51FF4F44
:1040B00081E090E09183808364C0FE01E951FF4F6D
:1040C000608171818281938120E03FEF4FE757E467
:1040D0000E94190318160CF043C0FE01E551FF4F72
:1040E000608171818281938120E030E040E251E47F
:1040F0000E941F02DC01CB018E010B511F4FBC013E
:10410000CD010E944900DC01CB01F801918380833D
:104110001FC0FE01ED51FF4F88EC90E0918380833A
:10412000FE01ED51FF4F808191810197F1F7FE0172
:10413000ED51FF4F91838083DE01AB51BF4FFE01F4
:10414000EB51FF4F80819181019711969C938E9343
:10415000FE01EB51FF4F808191810097D1F628C07D
:104160008E010B511F4FFE01E951FF4F608171819C
:10417000828193810E944900DC01CB01F801918387
:104180008083DE01AF51BF4FFE01EB51FF4F8081B5
:10419000918111969C938E93FE01EF51FF4F808188
:1041A00091810197F1F7FE01EF51FF4F91838083D9
:1041B00010923A010FC080913A01882F90E0FC01E3
:1041C000E05CFE4F80810E94E80680913A018F5F9B
:1041D00080933A0180913A01853068F30E94FF068E
:1041E00080933B0180913B01813009F064C31092C0
:1041F0003E0181E00E94E8060E94881280E690E07D
:104200000E94E11181E060E00E940A1210923A01DE
:10421000C6C080913A01082F10E00E949212F80166
:10422000E05CFE4F80838AE20E94F20FFE01E352BF
:10423000FF4F80E090E0AAEFB3E480839183A283F4
:10424000B3838E0107521F4FFE01E352FF4F60817F
:1042500071818281938120E030E04AEF54E40E9432
:104260001F02DC01CB01F80180839183A283B38319
:10427000FE01E752FF4F608171818281938120E0CE
:1042800030E040E85FE30E947903882344F4FE01B4
:10429000E952FF4F81E090E09183808364C0FE018A
:1042A000E752FF4F608171818281938120E03FEF6F
:1042B0004FE757E40E94190318160CF043C0FE01A3
:1042C000E352FF4F608171818281938120E030E071
:1042D00040E251E40E941F02DC01CB018E01095231
:1042E0001F4FBC01CD010E944900DC01CB01F80148
:1042F000918380831FC0FE01EB52FF4F88EC90E05A
:1043000091838083FE01EB52FF4F80819181019761
:10431000F1F7FE01EB52FF4F91838083DE01A9523A
:10432000BF4FFE01E952FF4F8081918101971196A5
:104330009C938E93FE01E952FF4F808191810097FB
:10434000D1F628C08E0109521F4FFE01E752FF4FE0
:1043500060817181828193810E944900DC01CB01DF
:10436000F80191838083DE01AD52BF4FFE01E95217
:10437000FF4F8081918111969C938E93FE01ED52A7
:10438000FF4F808191810197F1F7FE01ED52FF4FC0
:104390009183808380913A018F5F80933A0180916D
:1043A0003A01853008F435CF0E9492128536E1F744
:1043B000FE01E153FF4F80E090E0AAEFB3E4808379
:1043C0009183A283B3838E0105531F4FFE01E153F6
:1043D000FF4F608171818281938120E030E04AEF5C
:1043E00054E40E941F02DC01CB01F8018083918319
:1043F000A283B383FE01E553FF4F60817181828107
:10440000938120E030E040E85FE30E947903882355
:1044100044F4FE01E753FF4F81E090E091838083F5
:1044200064C0FE01E553FF4F6081718182819381F9
:1044300020E03FEF4FE757E40E94190318160CF0F5
:1044400043C0FE01E153FF4F6081718182819381FE
:1044500020E030E040E251E40E941F02DC01CB0189
:104460008E0107531F4FBC01CD010E944900DC01A2
:10447000CB01F801918380831FC0FE01E953FF4FF8
:1044800088EC90E091838083FE01E953FF4F8081A7
:1044900091810197F1F7FE01E953FF4F91838083EA
:1044A000DE01A753BF4FFE01E753FF4F808191818B
:1044B000019711969C938E93FE01E753FF4F8081E5
:1044C00091810097D1F627C08E0107531F4FFE013F
:1044D000E553FF4F60817181828193810E94490081
:1044E000DC01CB01F80191838083DE01AB53BF4F28
:1044F000FE01E753FF4F808191818D939C93FE01D4
:10450000EB53FF4F808191810197F1F7FE01EB534F
:10451000FF4F918380830E94881280E790E00E9481
:10452000E11121E830E081E060E0A9010E944C1235
:1045300010923A01C6C080913A01082F10E00E9403
:104540009212F801EB5BFE4F80838AE20E94F20F29
:10455000FE01EF53FF4F80E090E0AAEFB3E48083C9
:104560009183A283B3838E0103541F4FFE01EF5347
:10457000FF4F608171818281938120E030E04AEFBA
:1045800054E40E941F02DC01CB01F8018083918377
:10459000A283B383FE01E354FF4F60817181828166
:1045A000938120E030E040E85FE30E9479038823B4
:1045B00044F4FE01E554FF4F81E090E09183808355
:1045C00064C0FE01E354FF4F608171818281938159
:1045D00020E03FEF4FE757E40E94190318160CF054
:1045E00043C0FE01EF53FF4F60817181828193814F
:1045F00020E030E040E251E40E941F02DC01CB01E8
:104600008E0105541F4FBC01CD010E944900DC0101
:10461000CB01F801918380831FC0FE01E754FF4F57
:1046200088EC90E091838083FE01E754FF4F808106
:1046300091810197F1F7FE01E754FF4F9183808349
:10464000DE01A554BF4FFE01E554FF4F80819181EB
:10465000019711969C938E93FE01E554FF4F808144
:1046600091810097D1F628C08E0105541F4FFE019D
:10467000E354FF4F60817181828193810E944900E0
:10468000DC01CB01F80191838083DE01A954BF4F87
:10469000FE01E554FF4F8081918111969C938E938A
:1046A000FE01E954FF4F808191810197F1F7FE01EE
:1046B000E954FF4F9183808380913A018F5F80930B
:1046C0003A0180913A01853008F435CF0E94921268
:1046D0008536E1F7FE01ED54FF4F80E090E0AAEF50
:1046E000B3E480839183A283B3838E0101551F4F6E
:1046F000FE01ED54FF4F608171818281938120E042
:1047000030E04AEF54E40E941F02DC01CB01F801C3
:1047100080839183A283B383FE01E155FF4F6081C3
:1047200071818281938120E030E040E85FE30E9464
:104730007903882344F4FE01E355FF4F81E090E0C4
:104740009183808364C0FE01E155FF4F60817181D8
:104750008281938120E03FEF4FE757E40E941903E5
:1047600018160CF043C0FE01ED54FF4F60817181BB
:104770008281938120E030E040E251E40E941F02F8
:10478000DC01CB018E0103551F4FBC01CD010E94FE
:104790004900DC01CB01F801918380831FC0FE0139
:1047A000E555FF4F88EC90E091838083FE01E5554D
:1047B000FF4F808191810197F1F7FE01E555FF4F91
:1047C00091838083DE01A355BF4FFE01E355FF4F68
:1047D00080819181019711969C938E93FE01E35500
:1047E000FF4F808191810097D1F628C08E0103553B
:1047F0001F4FFE01E155FF4F6081718182819381DE
:104800000E944900DC01CB01F80191838083DE0125
:10481000A755BF4FFE01E355FF4F8081918111964F
:104820009C938E93FE01E755FF4F80819181019704
:10483000F1F7FE01E755FF4F9183808310923A0113
:104840000FC080913A01882F90E0FC01E05CFE4FA0
:1048500080810E94E80680913A018F5F80933A013F
:1048600080913A01853068F310923A010FC080912F
:104870003A01882F90E0FC01EB5BFE4F80810E94A3
:10488000E80680913A018F5F80933A0180913A0166
:10489000853068F30E94FF0680933B0180913B01C5
:1048A000813011F40E94881280913B01813009F01F
:1048B000A0CC0C94ED1780913B01882311F00C944F
:1048C000ED1780913E018F5F80933E0180913E0104
:1048D0008330E9F484E00E94E8060E94881221E017
:1048E00031E080E061E0A9010E944C122FE031E04C
:1048F00081E060E0A9010E944C1210924A0180916F
:104900004A018C33E0F310923E010C94ED1783E0E2
:104910000E94E8060E9488128BEA90E00E94E11152
:1049200029EB30E081E060E0A9010E944C12109276
:104930003A01C6C080913A01082F10E00E949212FD
:10494000F801E05CFE4F80838AE20E94F20FFE01D4
:10495000EB55FF4F80E090E0AAEFB3E480839183B2
:10496000A283B3838E010F551F4FFE01EB55FF4FFE
:10497000608171818281938120E030E04AEF54E4CC
:104980000E941F02DC01CB01F80180839183A28386
:10499000B383FE01EF55FF4F608171818281938166
:1049A00020E030E040E85FE30E947903882344F48C
:1049B000FE01E156FF4F81E090E09183808364C067
:1049C000FE01EF55FF4F608171818281938120E06C
:1049D0003FEF4FE757E40E94190318160CF043C04D
:1049E000FE01EB55FF4F608171818281938120E050
:1049F00030E040E251E40E941F02DC01CB018E0155
:104A000001561F4FBC01CD010E944900DC01CB01C2
:104A1000F801918380831FC0FE01E356FF4F88ECAD
:104A200090E091838083FE01E356FF4F8081918166
:104A30000197F1F7FE01E356FF4F91838083DE017A
:104A4000A156BF4FFE01E156FF4F80819181019732
:104A500011969C938E93FE01E156FF4F80819181C8
:104A60000097D1F628C08E0101561F4FFE01EF5569
:104A7000FF4F60817181828193810E944900DC0136
:104A8000CB01F80191838083DE01A556BF4FFE0163
:104A9000E156FF4F8081918111969C938E93FE0188
:104AA000E556FF4F808191810197F1F7FE01E556B0
:104AB000FF4F9183808380913A018F5F80933A0109
:104AC00080913A01853008F435CF0E9492128536E4
:104AD000E1F7FE01E956FF4F80E090E0AAEFB3E472
:104AE00080839183A283B3838E010D561F4FFE01F5
:104AF000E956FF4F608171818281938120E030E02F
:104B00004AEF54E40E941F02DC01CB01F8018083CC
:104B10009183A283B383FE01ED56FF4F60817181C3
:104B20008281938120E030E040E85FE30E947903D6
:104B3000882344F4FE01EF56FF4F81E090E091831B
:104B4000808364C0FE01ED56FF4F608171818281D8
:104B5000938120E03FEF4FE757E40E9419031816B6
:104B60000CF043C0FE01E956FF4F608171818281E4
:104B7000938120E030E040E251E40E941F02DC011A
:104B8000CB018E010F561F4FBC01CD010E94490081
:104B9000DC01CB01F801918380831FC0FE01E15746
:104BA000FF4F88EC90E091838083FE01E157FF4F37
:104BB000808191810197F1F7FE01E157FF4F9183C9
:104BC0008083DE01AF56BF4FFE01EF56FF4F80815D
:104BD0009181019711969C938E93FE01EF56FF4FA2
:104BE000808191810097D1F628C08E010F561F4F0A
:104BF000FE01ED56FF4F60817181828193810E9499
:104C00004900DC01CB01F80191838083DE01A357C9
:104C1000BF4FFE01EF56FF4F8081918111969C930B
:104C20008E93FE01E357FF4F808191810197F1F749
:104C3000FE01E357FF4F9183808310923A010FC02A
:104C400080913A01882F90E0FC01E05CFE4F80816A
:104C50000E94E80680913A018F5F80933A0180912B
:104C60003A01853068F30E94FF0680933B018091F2
:104C70003B01813009F064C310923E0181E00E9443
:104C8000E8060E94881280E690E00E94E11181E02F
:104C900060E00E940A1210923A01C6C080913A0167
:104CA000082F10E00E949212F801E05CFE4F808312
:104CB0008AE20E94F20FFE01E757FF4F80E090E08A
:104CC000AAEFB3E480839183A283B3838E010B5751
:104CD0001F4FFE01E757FF4F6081718182819381F1
:104CE00020E030E04AEF54E40E941F02DC01CB01D7
:104CF000F80180839183A283B383FE01EB57FF4FBA
:104D0000608171818281938120E030E040E85FE33F
:104D10000E947903882344F4FE01ED57FF4F81E0A0
:104D200090E09183808364C0FE01EB57FF4F608168
:104D300071818281938120E03FEF4FE757E40E9429
:104D4000190318160CF043C0FE01E757FF4F6081AE
:104D500071818281938120E030E040E251E40E9441
:104D60001F02DC01CB018E010D571F4FBC01CD018D
:104D70000E944900DC01CB01F801918380831FC0B0
:104D8000FE01EF57FF4F88EC90E091838083FE0196
:104D9000EF57FF4F808191810197F1F7FE01EF57A7
:104DA000FF4F91838083DE01AD57BF4FFE01ED576A
:104DB000FF4F80819181019711969C938E93FE0104
:104DC000ED57FF4F808191810097D1F628C08E0169
:104DD0000D571F4FFE01EB57FF4F6081718182819C
:104DE00093810E944900DC01CB01F801918380830B
:104DF000DE01A158BF4FFE01ED57FF4F8081918129
:104E000011969C938E93FE01E158FF4F8081918112
:104E10000197F1F7FE01E158FF4F91838083809164
:104E20003A018F5F80933A0180913A01853008F40E
:104E300035CF0E9492128536E1F7FE01E558FF4F0B
:104E400080E090E0AAEFB3E480839183A283B383F0
:104E50008E0109581F4FFE01E558FF4F6081718197
:104E60008281938120E030E04AEF54E40E941F02E7
:104E7000DC01CB01F80180839183A283B383FE011F
:104E8000E958FF4F608171818281938120E030E099
:104E900040E85FE30E947903882344F4FE01EB5865
:104EA000FF4F81E090E09183808364C0FE01E95868
:104EB000FF4F608171818281938120E03FEF4FE756
:104EC00057E40E94190318160CF043C0FE01E55880
:104ED000FF4F608171818281938120E030E040E268
:104EE00051E40E941F02DC01CB018E010B581F4FC1
:104EF000BC01CD010E944900DC01CB01F801918386
:104F000080831FC0FE01ED58FF4F88EC90E0918335
:104F10008083FE01ED58FF4F808191810197F1F769
:104F2000FE01ED58FF4F91838083DE01AB58BF4FE8
:104F3000FE01EB58FF4F80819181019711969C9360
:104F40008E93FE01EB58FF4F808191810097D1F63F
:104F500027C08E010B581F4FFE01E958FF4F60819B
:104F60007181828193810E944900DC01CB01F801AB
:104F700091838083DE01AF58BF4FFE01EB58FF4F96
:104F8000808191818D939C93FE01EF58FF4F80812A
:104F900091810197F1F7FE01EF58FF4F91838083D4
:104FA0000E94881280E790E00E94E11121E830E041
:104FB00081E060E0A9010E944C1210923A01C6C043
:104FC00080913A01082F10E00E949212F801EB5BE9
:104FD000FE4F80838AE20E94F20FFE01E359FF4FE9
:104FE00080E090E0AAEFB3E480839183A283B3834F
:104FF0008E0107591F4FFE01E359FF4F60817181F8
:105000008281938120E030E04AEF54E40E941F0245
:10501000DC01CB01F80180839183A283B383FE017D
:10502000E759FF4F608171818281938120E030E0F8
:1050300040E85FE30E947903882344F4FE01E959C4
:10504000FF4F81E090E09183808364C0FE01E759C7
:10505000FF4F608171818281938120E03FEF4FE7B4
:1050600057E40E94190318160CF043C0FE01E359DF
:10507000FF4F608171818281938120E030E040E2C6
:1050800051E40E941F02DC01CB018E0109591F4F20
:10509000BC01CD010E944900DC01CB01F8019183E4
:1050A00080831FC0FE01EB59FF4F88EC90E0918395
:1050B0008083FE01EB59FF4F808191810197F1F7C9
:1050C000FE01EB59FF4F91838083DE01A959BF4F49
:1050D000FE01E959FF4F80819181019711969C93C0
:1050E0008E93FE01E959FF4F808191810097D1F69F
:1050F00028C08E0109591F4FFE01E759FF4F6081FB
:105100007181828193810E944900DC01CB01F80109
:1051100091838083DE01AD59BF4FFE01E959FF4FF6
:105120008081918111969C938E93FE01ED59FF4FE2
:10513000808191810197F1F7FE01ED59FF4F918335
:10514000808380913A018F5F80933A0180913A0188
:10515000853008F435CF0E9492128536E1F7FE01C2
:10516000E15AFF4F80E090E0AAEFB3E4808391839F
:10517000A283B3838E01055A1F4FFE01E15AFF4FF0
:10518000608171818281938120E030E04AEF54E4B4
:105190000E941F02DC01CB01F80180839183A2836E
:1051A000B383FE01E55AFF4F608171818281938153
:1051B00020E030E040E85FE30E947903882344F474
:1051C000FE01E75AFF4F81E090E09183808364C045
:1051D000FE01E55AFF4F608171818281938120E059
:1051E0003FEF4FE757E40E94190318160CF043C035
:1051F000FE01E15AFF4F608171818281938120E03D
:1052000030E040E251E40E941F02DC01CB018E013C
:10521000075A1F4FBC01CD010E944900DC01CB01A0
:10522000F801918380831FC0FE01E95AFF4F88EC8B
:1052300090E091838083FE01E95AFF4F8081918144
:105240000197F1F7FE01E95AFF4F91838083DE0158
:10525000A75ABF4FFE01E75AFF4F80819181019706
:1052600011969C938E93FE01E75AFF4F80819181A6
:105270000097D1F628C08E01075A1F4FFE01E55A4C
:10528000FF4F60817181828193810E944900DC011E
:10529000CB01F80191838083DE01AB5ABF4FFE0141
:1052A000E75AFF4F8081918111969C938E93FE0166
:1052B000EB5AFF4F808191810197F1F7FE01EB5A84
:1052C000FF4F9183808310923A010FC080913A0181
:1052D000882F90E0FC01E05CFE4F80810E94E80690
:1052E00080913A018F5F80933A0180913A01853035
:1052F00068F310923A010FC080913A01882F90E034
:10530000FC01EB5BFE4F80810E94E80680913A0130
:105310008F5F80933A0180913A01853068F30E9453
:10532000FF0680933B0180913B01813011F40E9484
:10533000881280913B01813009F0A0CC0C94ED17CC
:1053400080913B01882311F00C94ED1780913E0170
:105350008F5F80933E0180913E018330E9F484E0C9
:105360000E94E8060E94881221E031E080E061E0BE
:10537000A9010E944C122FE031E081E060E0A90118
:105380000E944C1210924A0180914A018C33E0F342
:1053900010923E010C94ED1783E00E94E8060E94F3
:1053A00088128BEA90E00E94E11129EB30E081E065
:1053B00060E0A9010E944C1210923A01C6C080918F
:1053C0003A01082F10E00E949212F801E05CFE4FB3
:1053D00080838AE20E94F20FFE01EF5AFF4F80E0C5
:1053E00090E0AAEFB3E480839183A283B3838E011C
:1053F000035B1F4FFE01EF5AFF4F60817181828175
:10540000938120E030E04AEF54E40E941F02DC0167
:10541000CB01F80180839183A283B383FE01E35B18
:10542000FF4F608171818281938120E030E040E80C
:105430005FE30E947903882344F4FE01E55BFF4F9C
:1054400081E090E09183808364C0FE01E35BFF4FC5
:10545000608171818281938120E03FEF4FE757E4C3
:105460000E94190318160CF043C0FE01EF5AFF4FBB
:10547000608171818281938120E030E040E251E4DB
:105480000E941F02DC01CB018E01055B1F4FBC0196
:10549000CD010E944900DC01CB01F801918380839A
:1054A0001FC0FE01E75BFF4F88EC90E09183808393
:1054B000FE01E75BFF4F808191810197F1F7FE01CB
:1054C000E75BFF4F91838083DE01A55BBF4FFE0149
:1054D000E55BFF4F80819181019711969C938E939C
:1054E000FE01E55BFF4F808191810097D1F628C0D6
:1054F0008E01055B1F4FFE01E35BFF4F60817181F1
:10550000828193810E944900DC01CB01F8019183E3
:105510008083DE01A95BBF4FFE01E55BFF4F808109
:10552000918111969C938E93FE01E95BFF4F8081E0
:1055300091810197F1F7FE01E95BFF4F9183808331
:1055400080913A018F5F80933A0180913A018530D2
:1055500008F435CF0E9492128536E1F7FE01ED5B2B
:10556000FF4F80E090E0AAEFB3E480839183A283B1
:10557000B3838E01015C1F4FFE01ED5BFF4F608125
:1055800071818281938120E030E04AEF54E40E94EF
:105590001F02DC01CB01F80180839183A283B383D6
:1055A000FE01FF96608171818281938120E030E06D
:1055B00040E85FE30E94790388232CF481E090E0C7
:1055C0009EAF8DAF46C0FE01FF96608171818281E2
:1055D000938120E03FEF4FE757E40E94190318162C
:1055E00064F5FE01ED5BFF4F6081718182819381E3
:1055F00020E030E040E251E40E941F02DC01CB01D8
:10560000BC01CD010E944900DC01CB019EAF8DAFF2
:105610000FC088EC90E09CAF8BAF8BAD9CAD019739
:10562000F1F79CAF8BAF8DAD9EAD01979EAF8DAF67
:105630008DAD9EAD009769F716C0FE01FF966081A3
:105640007181828193810E944900DC01CB019EAF70
:105650008DAF8DAD9EAD9AAF89AF89AD9AAD0197F3
:10566000F1F79AAF89AF10923A010FC080913A01D9
:10567000882F90E0FC01E05CFE4F80810E94E806EC
:1056800080913A018F5F80933A0180913A01853091
:1056900068F30E94FF0680933B0180913B018130BB
:1056A00009F05DC210923E0181E00E94E8060E946E
:1056B000881280E690E00E94E11181E060E00E94A3
:1056C0000A1210923A0184C080913A01082F10E02A
:1056D0000E949212F801E05CFE4F80838AE20E94F1
:1056E000F20F80E090E0AAEFB3E48DAB9EABAFABDE
:1056F000B8AF6DA97EA98FA998AD20E030E04AEF40
:1057000054E40E941F02DC01CB0189AB9AABABAB26
:10571000BCAB69A97AA98BA99CA920E030E040E83C
:105720005FE30E94790388232CF481E090E098AB3A
:105730008FA73FC069A97AA98BA99CA920E03FEF58
:105740004FE757E40E94190318164CF56DA97EA97E
:105750008FA998AD20E030E040E251E40E941F02A2
:10576000DC01CB01BC01CD010E944900DC01CB0171
:1057700098AB8FA70FC088EC90E09EA78DA78DA552
:105780009EA50197F1F79EA78DA78FA598A90197D0
:1057900098AB8FA78FA598A9009769F714C069A93E
:1057A0007AA98BA99CA90E944900DC01CB0198AB86
:1057B0008FA78FA598A99CA78BA78BA59CA50197C0
:1057C000F1F79CA78BA780913A018F5F80933A01F4
:1057D00080913A01853008F477CF0E949212853685
:1057E000E1F780E090E0AAEFB3E48FA398A7A9A720
:1057F000BAA76FA178A589A59AA520E030E04AEF65
:1058000054E40E941F02DC01CB018BA39CA3ADA337
:10581000BEA36BA17CA18DA19EA120E030E040E859
:105820005FE30E94790388232CF481E090E09AA33F
:1058300089A33FC06BA17CA18DA19EA120E03FEF79
:105840004FE757E40E94190318164CF56FA178A58D
:1058500089A59AA520E030E040E251E40E941F02B1
:10586000DC01CB01BC01CD010E944900DC01CB0170
:105870009AA389A30FC088EC90E098A38F8F8F8D97
:1058800098A10197F1F798A38F8F89A19AA1019709
:105890009AA389A389A19AA1009769F714C06BA163
:1058A0007CA18DA19EA10E944900DC01CB019AA39D
:1058B00089A389A19AA19E8F8D8F8D8D9E8D019731
:1058C000F1F79E8F8D8F0E94881280E790E00E94F2
:1058D000E11121E830E081E060E0A9010E944C1272
:1058E00010923A0184C080913A01082F10E00E9482
:1058F0009212F801EB5BFE4F80838AE20E94F20F66
:1059000080E090E0AAEFB3E4898F9A8FAB8FBC8FD1
:10591000698D7A8D8B8D9C8D20E030E04AEF54E4C8
:105920000E941F02DC01CB018D8B9E8BAF8BB88F49
:105930006D897E898F89988D20E030E040E85FE3B3
:105940000E94790388232CF481E090E09C8B8B8B60
:105950003FC06D897E898F89988D20E03FEF4FE7AA
:1059600057E40E94190318164CF5698D7A8D8B8DBA
:105970009C8D20E030E040E251E40E941F02DC01F7
:10598000CB01BC01CD010E944900DC01CB019C8B05
:105990008B8B0FC088EC90E09A8B898B89899A89D0
:1059A0000197F1F79A8B898B8B899C8901979C8B46
:1059B0008B8B8B899C89009769F714C06D897E89D0
:1059C0008F89988D0E944900DC01CB019C8B8B8BC9
:1059D0008B899C89988B8F878F8598890197F1F7A0
:1059E000988B8F8780913A018F5F80933A018091E5
:1059F0003A01853008F477CF0E9492128536E1F79C
:105A000080E090E0AAEFB3E48B879C87AD87BE87E8
:105A10006B857C858D859E8520E030E04AEF54E4DF
:105A20000E941F02DC01CB018F839887A987BA8768
:105A30006F81788589859A8520E030E040E85FE3D2
:105A40000E94790388232CF481E090E09E838D836B
:105A50003FC06F81788589859A8520E03FEF4FE7C9
:105A600057E40E94190318164CF56B857C858D85CB
:105A70009E8520E030E040E251E40E941F02DC01FC
:105A8000CB01BC01CD010E944900DC01CB019E830A
:105A90008D830FC088EC90E09C838B838B819C81ED
:105AA0000197F1F79C838B838D819E8101979E8363
:105AB0008D838D819E81009769F714C06F817885F1
:105AC00089859A850E944900DC01CB019E838D83E4
:105AD0008D819E819A83898389819A810197F1F7CB
